{
  "address": "0x5FbDB2315678afecb367f032d93F642f64180aa3",
  "abi": [
    {
      "anonymous": false,
      "inputs": [
        {
          "indexed": false,
          "internalType": "address",
          "name": "pollEntry",
          "type": "address"
        },
        {
          "indexed": false,
          "internalType": "address",
          "name": "owner",
          "type": "address"
        }
      ],
      "name": "EntryCreated",
      "type": "event"
    },
    {
      "inputs": [
        {
          "internalType": "string",
          "name": "title",
          "type": "string"
        },
        {
          "internalType": "string",
          "name": "description",
          "type": "string"
        },
        {
          "internalType": "string[]",
          "name": "options",
          "type": "string[]"
        }
      ],
      "name": "createEntry",
      "outputs": [
        {
          "internalType": "address",
          "name": "",
          "type": "address"
        }
      ],
      "stateMutability": "nonpayable",
      "type": "function"
    },
    {
      "inputs": [
        {
          "internalType": "address",
          "name": "ownerAddress",
          "type": "address"
        }
      ],
      "name": "getEntry",
      "outputs": [
        {
          "internalType": "address[]",
          "name": "",
          "type": "address[]"
        }
      ],
      "stateMutability": "view",
      "type": "function"
    },
    {
      "inputs": [],
      "name": "getPollEntriesLength",
      "outputs": [
        {
          "internalType": "uint256",
          "name": "",
          "type": "uint256"
        }
      ],
      "stateMutability": "view",
      "type": "function"
    },
    {
      "inputs": [
        {
          "internalType": "uint256",
          "name": "index",
          "type": "uint256"
        }
      ],
      "name": "getPollEntry",
      "outputs": [
        {
          "internalType": "address",
          "name": "",
          "type": "address"
        }
      ],
      "stateMutability": "view",
      "type": "function"
    }
  ],
  "transactionHash": "0xf69bd0a1e160653eb9c274fc80cf04804a8b214ba3ce5a0fdad4fc28a2bf488e",
  "args": [],
  "numDeployments": 1,
  "solcInputHash": "f0cdc8271deb2e88c56495b60e2c9d9a",
  "bytecode": "0x608060405234801561001057600080fd5b50611cfc806100206000396000f3fe60806040523480156200001157600080fd5b5060043610620000525760003560e01c80632058a0ec146200005757806376b83f6714620000795780637db6a4e414620000af578063e106b36e14620000e5575b600080fd5b620000616200011b565b604051620000709190620003f6565b60405180910390f35b62000097600480360381019062000091919062000458565b62000128565b604051620000a69190620004cf565b60405180910390f35b620000cd6004803603810190620000c791906200051d565b62000173565b604051620000dc91906200061d565b60405180910390f35b620001036004803603810190620000fd91906200089f565b62000241565b604051620001129190620004cf565b60405180910390f35b6000600180549050905090565b60006001828154811062000141576200014062000958565b5b9060005260206000200160009054906101000a900473ffffffffffffffffffffffffffffffffffffffff169050919050565b60606000808373ffffffffffffffffffffffffffffffffffffffff1673ffffffffffffffffffffffffffffffffffffffff1681526020019081526020016000208054806020026020016040519081016040528092919081815260200182805480156200023557602002820191906000526020600020905b8160009054906101000a900473ffffffffffffffffffffffffffffffffffffffff1673ffffffffffffffffffffffffffffffffffffffff1681526020019060010190808311620001ea575b50505050509050919050565b600080338585856040516200025690620003cd565b62000265949392919062000b3c565b604051809103906000f08015801562000282573d6000803e3d6000fd5b5090506000803373ffffffffffffffffffffffffffffffffffffffff1673ffffffffffffffffffffffffffffffffffffffff168152602001908152602001600020819080600181540180825580915050600190039060005260206000200160009091909190916101000a81548173ffffffffffffffffffffffffffffffffffffffff021916908373ffffffffffffffffffffffffffffffffffffffff1602179055506001819080600181540180825580915050600190039060005260206000200160009091909190916101000a81548173ffffffffffffffffffffffffffffffffffffffff021916908373ffffffffffffffffffffffffffffffffffffffff1602179055507fa7ffa842875713b0df6f841bd6349d688510d7ddbb81964f14cccd51b4913cbe8133604051620003ba92919062000b9e565b60405180910390a1809150509392505050565b6110fb8062000bcc83390190565b6000819050919050565b620003f081620003db565b82525050565b60006020820190506200040d6000830184620003e5565b92915050565b6000604051905090565b600080fd5b600080fd5b6200043281620003db565b81146200043e57600080fd5b50565b600081359050620004528162000427565b92915050565b6000602082840312156200047157620004706200041d565b5b6000620004818482850162000441565b91505092915050565b600073ffffffffffffffffffffffffffffffffffffffff82169050919050565b6000620004b7826200048a565b9050919050565b620004c981620004aa565b82525050565b6000602082019050620004e66000830184620004be565b92915050565b620004f781620004aa565b81146200050357600080fd5b50565b6000813590506200051781620004ec565b92915050565b6000602082840312156200053657620005356200041d565b5b6000620005468482850162000506565b91505092915050565b600081519050919050565b600082825260208201905092915050565b6000819050602082019050919050565b6200058681620004aa565b82525050565b60006200059a83836200057b565b60208301905092915050565b6000602082019050919050565b6000620005c0826200054f565b620005cc81856200055a565b9350620005d9836200056b565b8060005b8381101562000610578151620005f488826200058c565b97506200060183620005a6565b925050600181019050620005dd565b5085935050505092915050565b60006020820190508181036000830152620006398184620005b3565b905092915050565b600080fd5b600080fd5b6000601f19601f8301169050919050565b7f4e487b7100000000000000000000000000000000000000000000000000000000600052604160045260246000fd5b62000696826200064b565b810181811067ffffffffffffffff82111715620006b857620006b76200065c565b5b80604052505050565b6000620006cd62000413565b9050620006db82826200068b565b919050565b600067ffffffffffffffff821115620006fe57620006fd6200065c565b5b62000709826200064b565b9050602081019050919050565b82818337600083830152505050565b60006200073c6200073684620006e0565b620006c1565b9050828152602081018484840111156200075b576200075a62000646565b5b6200076884828562000716565b509392505050565b600082601f83011262000788576200078762000641565b5b81356200079a84826020860162000725565b91505092915050565b600067ffffffffffffffff821115620007c157620007c06200065c565b5b602082029050602081019050919050565b600080fd5b6000620007ee620007e884620007a3565b620006c1565b90508083825260208201905060208402830185811115620008145762000813620007d2565b5b835b818110156200086257803567ffffffffffffffff8111156200083d576200083c62000641565b5b8086016200084c898262000770565b8552602085019450505060208101905062000816565b5050509392505050565b600082601f83011262000884576200088362000641565b5b813562000896848260208601620007d7565b91505092915050565b600080600060608486031215620008bb57620008ba6200041d565b5b600084013567ffffffffffffffff811115620008dc57620008db62000422565b5b620008ea8682870162000770565b935050602084013567ffffffffffffffff8111156200090e576200090d62000422565b5b6200091c8682870162000770565b925050604084013567ffffffffffffffff81111562000940576200093f62000422565b5b6200094e868287016200086c565b9150509250925092565b7f4e487b7100000000000000000000000000000000000000000000000000000000600052603260045260246000fd5b600081519050919050565b600082825260208201905092915050565b60005b83811015620009c3578082015181840152602081019050620009a6565b83811115620009d3576000848401525b50505050565b6000620009e68262000987565b620009f2818562000992565b935062000a04818560208601620009a3565b62000a0f816200064b565b840191505092915050565b600081519050919050565b600082825260208201905092915050565b6000819050602082019050919050565b600082825260208201905092915050565b600062000a648262000987565b62000a70818562000a46565b935062000a82818560208601620009a3565b62000a8d816200064b565b840191505092915050565b600062000aa6838362000a57565b905092915050565b6000602082019050919050565b600062000ac88262000a1a565b62000ad4818562000a25565b93508360208202850162000ae88562000a36565b8060005b8581101562000b2a578484038952815162000b08858262000a98565b945062000b158362000aae565b925060208a0199505060018101905062000aec565b50829750879550505050505092915050565b600060808201905062000b536000830187620004be565b818103602083015262000b678186620009d9565b9050818103604083015262000b7d8185620009d9565b9050818103606083015262000b93818462000abb565b905095945050505050565b600060408201905062000bb56000830185620004be565b62000bc46020830184620004be565b939250505056fe60a06040523480156200001157600080fd5b50604051620010fb380380620010fb833981810160405281019062000037919062000580565b60008151141562000074576040517f088bf64300000000000000000000000000000000000000000000000000000000815260040160405180910390fd5b8373ffffffffffffffffffffffffffffffffffffffff1660808173ffffffffffffffffffffffffffffffffffffffff16815250508260009080519060200190620000c0929190620000fd565b508160019080519060200190620000d9929190620000fd565b508060029080519060200190620000f29291906200018e565b5050505050620006b4565b8280546200010b906200067e565b90600052602060002090601f0160209004810192826200012f57600085556200017b565b82601f106200014a57805160ff19168380011785556200017b565b828001600101855582156200017b579182015b828111156200017a5782518255916020019190600101906200015d565b5b5090506200018a9190620001f5565b5090565b828054828255906000526020600020908101928215620001e2579160200282015b82811115620001e1578251829080519060200190620001d0929190620000fd565b5091602001919060010190620001af565b5b509050620001f1919062000214565b5090565b5b8082111562000210576000816000905550600101620001f6565b5090565b5b808211156200023857600081816200022e91906200023c565b5060010162000215565b5090565b5080546200024a906200067e565b6000825580601f106200025e57506200027f565b601f0160209004906000526020600020908101906200027e9190620001f5565b5b50565b6000604051905090565b600080fd5b600080fd5b600073ffffffffffffffffffffffffffffffffffffffff82169050919050565b6000620002c38262000296565b9050919050565b620002d581620002b6565b8114620002e157600080fd5b50565b600081519050620002f581620002ca565b92915050565b600080fd5b600080fd5b6000601f19601f8301169050919050565b7f4e487b7100000000000000000000000000000000000000000000000000000000600052604160045260246000fd5b620003508262000305565b810181811067ffffffffffffffff8211171562000372576200037162000316565b5b80604052505050565b60006200038762000282565b905062000395828262000345565b919050565b600067ffffffffffffffff821115620003b857620003b762000316565b5b620003c38262000305565b9050602081019050919050565b60005b83811015620003f0578082015181840152602081019050620003d3565b8381111562000400576000848401525b50505050565b60006200041d62000417846200039a565b6200037b565b9050828152602081018484840111156200043c576200043b62000300565b5b62000449848285620003d0565b509392505050565b600082601f830112620004695762000468620002fb565b5b81516200047b84826020860162000406565b91505092915050565b600067ffffffffffffffff821115620004a257620004a162000316565b5b602082029050602081019050919050565b600080fd5b6000620004cf620004c98462000484565b6200037b565b90508083825260208201905060208402830185811115620004f557620004f4620004b3565b5b835b818110156200054357805167ffffffffffffffff8111156200051e576200051d620002fb565b5b8086016200052d898262000451565b85526020850194505050602081019050620004f7565b5050509392505050565b600082601f830112620005655762000564620002fb565b5b815162000577848260208601620004b8565b91505092915050565b600080600080608085870312156200059d576200059c6200028c565b5b6000620005ad87828801620002e4565b945050602085015167ffffffffffffffff811115620005d157620005d062000291565b5b620005df8782880162000451565b935050604085015167ffffffffffffffff81111562000603576200060262000291565b5b620006118782880162000451565b925050606085015167ffffffffffffffff81111562000635576200063462000291565b5b62000643878288016200054d565b91505092959194509250565b7f4e487b7100000000000000000000000000000000000000000000000000000000600052602260045260246000fd5b600060028204905060018216806200069757607f821691505b60208210811415620006ae57620006ad6200064f565b5b50919050565b608051610a24620006d76000396000818161052c01526105520152610a246000f3fe608060405234801561001057600080fd5b506004361061009e5760003560e01c80637db6a4e4116100665780637db6a4e414610149578063893d20e8146101795780638d99b2eb14610197578063ff3c1a8f146101a1578063ff981099146101bf5761009e565b80630121b93f146100a35780631a092541146100bf5780631ce5e9a6146100dd5780635eb57b481461010d57806375dd18a51461012b575b600080fd5b6100bd60048036038101906100b891906106dc565b6101ef565b005b6100c7610379565b6040516100d491906107a2565b60405180910390f35b6100f760048036038101906100f291906106dc565b61040b565b60405161010491906107a2565b60405180910390f35b6101156104bb565b60405161012291906107d3565b60405180910390f35b6101336104c8565b6040516101409190610809565b60405180910390f35b610163600480360381019061015e9190610882565b6104df565b60405161017091906107d3565b60405180910390f35b610181610528565b60405161018e91906108be565b60405180910390f35b61019f610550565b005b6101a96105f2565b6040516101b691906107a2565b60405180910390f35b6101d960048036038101906101d491906106dc565b610684565b6040516101e691906107d3565b60405180910390f35b600460009054906101000a900460ff1615610236576040517f969f98a300000000000000000000000000000000000000000000000000000000815260040160405180910390fd5b6000811015801561024c57506002805490508111155b610282576040517f3566f12c00000000000000000000000000000000000000000000000000000000815260040160405180910390fd5b6000600560003373ffffffffffffffffffffffffffffffffffffffff1673ffffffffffffffffffffffffffffffffffffffff16815260200190815260200160002054146102fb576040517f7c9a1cf900000000000000000000000000000000000000000000000000000000815260040160405180910390fd5b600160036000838152602001908152602001600020600082825461031f9190610908565b925050819055506001816103339190610908565b600560003373ffffffffffffffffffffffffffffffffffffffff1673ffffffffffffffffffffffffffffffffffffffff1681526020019081526020016000208190555050565b6060600180546103889061098d565b80601f01602080910402602001604051908101604052809291908181526020018280546103b49061098d565b80156104015780601f106103d657610100808354040283529160200191610401565b820191906000526020600020905b8154815290600101906020018083116103e457829003601f168201915b5050505050905090565b606060028281548110610421576104206109bf565b5b9060005260206000200180546104369061098d565b80601f01602080910402602001604051908101604052809291908181526020018280546104629061098d565b80156104af5780601f10610484576101008083540402835291602001916104af565b820191906000526020600020905b81548152906001019060200180831161049257829003601f168201915b50505050509050919050565b6000600280549050905090565b6000600460009054906101000a900460ff16905090565b6000600560008373ffffffffffffffffffffffffffffffffffffffff1673ffffffffffffffffffffffffffffffffffffffff168152602001908152602001600020549050919050565b60007f0000000000000000000000000000000000000000000000000000000000000000905090565b7f000000000000000000000000000000000000000000000000000000000000000073ffffffffffffffffffffffffffffffffffffffff163373ffffffffffffffffffffffffffffffffffffffff16146105d5576040517f30cd747100000000000000000000000000000000000000000000000000000000815260040160405180910390fd5b6001600460006101000a81548160ff021916908315150217905550565b6060600080546106019061098d565b80601f016020809104026020016040519081016040528092919081815260200182805461062d9061098d565b801561067a5780601f1061064f5761010080835404028352916020019161067a565b820191906000526020600020905b81548152906001019060200180831161065d57829003601f168201915b5050505050905090565b600060036000838152602001908152602001600020549050919050565b600080fd5b6000819050919050565b6106b9816106a6565b81146106c457600080fd5b50565b6000813590506106d6816106b0565b92915050565b6000602082840312156106f2576106f16106a1565b5b6000610700848285016106c7565b91505092915050565b600081519050919050565b600082825260208201905092915050565b60005b83811015610743578082015181840152602081019050610728565b83811115610752576000848401525b50505050565b6000601f19601f8301169050919050565b600061077482610709565b61077e8185610714565b935061078e818560208601610725565b61079781610758565b840191505092915050565b600060208201905081810360008301526107bc8184610769565b905092915050565b6107cd816106a6565b82525050565b60006020820190506107e860008301846107c4565b92915050565b60008115159050919050565b610803816107ee565b82525050565b600060208201905061081e60008301846107fa565b92915050565b600073ffffffffffffffffffffffffffffffffffffffff82169050919050565b600061084f82610824565b9050919050565b61085f81610844565b811461086a57600080fd5b50565b60008135905061087c81610856565b92915050565b600060208284031215610898576108976106a1565b5b60006108a68482850161086d565b91505092915050565b6108b881610844565b82525050565b60006020820190506108d360008301846108af565b92915050565b7f4e487b7100000000000000000000000000000000000000000000000000000000600052601160045260246000fd5b6000610913826106a6565b915061091e836106a6565b9250827fffffffffffffffffffffffffffffffffffffffffffffffffffffffffffffffff03821115610953576109526108d9565b5b828201905092915050565b7f4e487b7100000000000000000000000000000000000000000000000000000000600052602260045260246000fd5b600060028204905060018216806109a557607f821691505b602082108114156109b9576109b861095e565b5b50919050565b7f4e487b7100000000000000000000000000000000000000000000000000000000600052603260045260246000fdfea2646970667358221220df6bf6cde01e0da8c1070d9fe1e8d47bd67592625d5c11d51961dafe2ce0a3fe64736f6c63430008090033a26469706673582212203d0419dff71703e549219034053170892c3abe372c1bf1e2e7113776cb282ee164736f6c63430008090033",
  "devdoc": {
    "kind": "dev",
    "methods": {},
    "version": 1
  },
  "userdoc": {
    "kind": "user",
    "methods": {},
    "version": 1
  },
  "storageLayout": {
    "storage": [
      {
        "astId": 13,
        "contract": "contracts/Poll3.sol:Poll3",
        "label": "entries",
        "offset": 0,
        "slot": "0",
        "type": "t_mapping(t_address,t_array(t_address)dyn_storage)"
      },
      {
        "astId": 16,
        "contract": "contracts/Poll3.sol:Poll3",
        "label": "pollEntries",
        "offset": 0,
        "slot": "1",
        "type": "t_array(t_address)dyn_storage"
      }
    ],
    "types": {
      "t_address": {
        "encoding": "inplace",
        "label": "address",
        "numberOfBytes": "20"
      },
      "t_array(t_address)dyn_storage": {
        "base": "t_address",
        "encoding": "dynamic_array",
        "label": "address[]",
        "numberOfBytes": "32"
      },
      "t_mapping(t_address,t_array(t_address)dyn_storage)": {
        "encoding": "mapping",
        "key": "t_address",
        "label": "mapping(address => address[])",
        "numberOfBytes": "32",
        "value": "t_array(t_address)dyn_storage"
      }
    }
  }
}